:100000000C9434000C9446000C9446000C9446006A
:100010000C9446000C9446000C9446000C94460048
:100020000C9446000C9446000C9446000C94460038
:100030000C9446000C9446000C9446000C94460028
:100040000C9446000C9446000C9446000C94460018
:100050000C9446000C9446000C9446000C94460008
:100060000C9446000C94460011241FBECFEFD8E03C
:10007000DEBFCDBF21E0A0E0B1E001C01D92A33FF3
:10008000B207E1F70E9448000C9413040C9400009E
:10009000CF93DF931F92CDB7DEB7412C512C612C4B
:1000A000712C0F2EF5E02F2EF1E03F2EF02D0F2EAC
:1000B000F5EF8F2EF1E09F2EF02D0F2EF0E0AF2EFA
:1000C000F1E0BF2EF02D0F2EC12CD12CF0E8EF2E39
:1000D000FFE3FF2EF02D97018601442D552D662D4F
:1000E000772DCE0101960E94100120910001E1E0E0
:1000F000F1E09081E2E0F1E08081F1012083DF0115
:1001000011979C9311978C933396E815F905B1F7E5
:1001100060E570E083E091E00E94C100FFEF29EF0D
:1001200080E0F15020408040E1F700C000002AE06C
:1001300037ED43E25CE3642D752D862D972D0E94EB
:100140003D02462E572E682E792E20E030E040E802
:100150005FE30E94A10288230CF4AFCF412C512C05
:10016000612C712CAACF98E0882314F02A9801C042
:100170002A9A289A880F0000000028989150A1F729
:100180000895CF92DF92EF92FF920F931F93CF9338
:10019000DF93EC017B01229A209A289880E00E944C
:1001A000B30080E00E94B30080E00E94B30080E0D2
:1001B0000E94B3006701CC0CDD1CCE0CDF1CC11407
:1001C000D104C9F0229600E010E08FEF0E94B30046
:1001D000FE01329780810E94B300FE013197808139
:1001E0000E94B30088810E94B3000D5F1F4F2396C9
:1001F0000C151D0550F3E114F10449F0C0E0D0E006
:100200008FEF0E94B3006096CE15DF05C8F3DF9133
:10021000CF911F910F91FF90EF90DF90CF900895B5
:100220002F923F924F925F926F927F928F929F9206
:10023000AF92BF92CF92DF92EF92FF920F931F93F4
:10024000CF93DF93CDB7DEB728970FB6F894DEBF14
:100250000FBECDBFCB01BA0128013901B886AF82EC
:1002600020E030E040EC50E40E9488034B015C0148
:100270000E94A5028B01882777FD8095982F0E9408
:10028000D8029B01AC01C501B4010E943C024B01A4
:100290005C01A301920160E070E080E89FE30E94AE
:1002A0003C022C2D3D2D4E2D5F2D0E948803262EC5
:1002B000372E89839A83A3019201C501B4010E945C
:1002C00088039B01AC0160E070E080E89FE30E943E
:1002D0003C022C2D3D2D4E2D5F2D0E9488036B83FB
:1002E0007C838D839E83A501940160E070E080E8AB
:1002F0009FE30E943C02A30192010E9488039B019C
:10030000AC0160E070E080E89FE30E943C022C2D8D
:100310003D2D4E2D5F2D0E948803B62EA72E982EC0
:10032000892EC80166E070E00E94EB0382309105DF
:10033000F9F034F4009709F455C00197A1F006C014
:100340008430910599F11CF10597E9F1212C312CAC
:1003500019821A82B12CA12C912C812C1B821C8217
:100360001D821E8243C0BC2CAD2C9E2C8F2C3EC007
:100370002B823C8289818D83EA81EE832B2C3A2C5F
:1003800099828A82BC2CAD2C9E2C8F2C2FC0BB80D6
:10039000AC809D808E802B823C82F981FD838A8196
:1003A0008E832C2C3D2CE982FA8220C0BB82AC8249
:1003B0009D828E82B22CA32C99808A802C2C3D2C7D
:1003C000E982FA8213C0B22CA32C99808A802B80F8
:1003D0003C80ED81E983FE81FA83CB82DC82ED8271
:1003E000FE8204C0CB82DC82ED82FE8220E030E01F
:1003F0004FE753E46B817C818D819E810E9488034D
:100400000E94AA02EF81F885608320E030E04FE788
:1004100053E46B2D7A2D892D982D0E9488030E941C
:10042000AA02EF81F885618320E030E04FE753E4D2
:10043000622D732D89819A810E9488030E94AA02ED
:10044000EF81F885628328960FB6F894DEBF0FBE61
:10045000CDBFDF91CF911F910F91FF90EF90DF9073
:10046000CF90BF90AF909F908F907F906F905F9054
:100470004F903F902F9008955058BB27AA270ED039
:100480000DC1FED030F003D120F031F49F3F11F4C4
:100490001EF4F3C00EF4E095E7FBE9C0E92F0FD19D
:1004A00080F3BA17620773078407950718F071F491
:1004B0009EF527C10EF4E0950B2EBA2FA02D0B014F
:1004C000B90190010C01CA01A0011124FF27591B99
:1004D00099F0593F50F4503E68F11A16F040A22F9F
:1004E000232F342F4427585FF3CF46953795279510
:1004F000A795F0405395C9F77EF41F16BA0B620B0F
:10050000730B840BBAF09150A1F0FF0FBB1F661F55
:10051000771F881FC2F70EC0BA0F621F731F841F98
:1005200048F4879577956795B795F7959E3F08F0BE
:10053000B3CF9395880F08F09927EE0F979587957D
:10054000089571D008F481E0089504D06894B11141
:10055000D9C00895BCD088F09F5790F0B92F992743
:10056000B751A0F0D1F0660F771F881F991F1AF0BE
:10057000BA95C9F712C0B13081F0C3D0B1E0089587
:10058000C0C0672F782F8827B85F39F0B93FCCF308
:10059000869577956795B395D9F73EF490958095B4
:1005A000709561957F4F8F4F9F4F0895E89409C0D4
:1005B00097FB3EF490958095709561957F4F8F4F96
:1005C0009F4F9923A9F0F92F96E9BB279395F695AC
:1005D000879577956795B795F111F8CFFAF4BB0F2A
:1005E00011F460FF1BC06F5F7F4F8F4F9F4F16C08E
:1005F000882311F096E911C0772321F09EE8872F18
:10060000762F05C0662371F096E8862F70E060E0D3
:100610002AF09A95660F771F881FDAF7880F96954C
:10062000879597F90895990F0008550FAA0BE0E8F0
:10063000FEEF16161706E807F907C0F012161306A4
:10064000E407F50798F0621B730B840B950B39F4E4
:100650000A2661F0232B242B252B21F408950A264A
:1006600009F4A140A6958FEF811D811D089597F98A
:100670009F6780E870E060E008959FEF80EC089548
:1006800000240A9416161706180609060895002471
:100690000A9412161306140605060895092E0394EB
:1006A000000C11F4882352F0BB0F40F4BF2B11F45F
:1006B00060FF04C06F5F7F4F8F4F9F4F089557FDBE
:1006C0009058440F551F59F05F3F71F04795880FC0
:1006D00097FB991F61F09F3F79F087950895121657
:1006E00013061406551FF2CF4695F1DF08C0161603
:1006F00017061806991FF1CF8695710561050894B4
:100700000895E894BB2766277727CB0197F90895CA
:100710000BD0C4CFB5DF28F0BADF18F0952309F06D
:10072000A6CFABCF1124EECFCADFA0F3959FD1F3B4
:10073000950F50E0551F629FF001729FBB27F00D8F
:10074000B11D639FAA27F00DB11DAA1F649F6627E4
:10075000B00DA11D661F829F2227B00DA11D621F33
:10076000739FB00DA11D621F839FA00D611D221FED
:10077000749F3327A00D611D231F849F600D211DD1
:10078000822F762F6A2F11249F5750408AF0E1F074
:1007900088234AF0EE0FFF1FBB1F661F771F881FBD
:1007A00091505040A9F79E3F510570F060CFAACFFD
:1007B0005F3FECF3983EDCF3869577956795B795A8
:1007C000F795E7959F5FC1F7FE2B880F911D9695D2
:1007D000879597F9089597FB072E16F4009407D094
:1007E00077FD09D00E94FF0307FC05D03EF49095E9
:1007F00081959F4F0895709561957F4F0895AA1B2D
:10080000BB1B51E107C0AA1FBB1FA617B70710F0FB
:10081000A61BB70B881F991F5A95A9F7809590952D
:0A082000BC01CD010895F894FFCF4C
:00000001FF
